:020000040800F2
:1000000080070020B18C0008550300085703000842
:100010005B0300085F0300086303000800000000A2
:10002000000000000000000000000000670300085E
:1000300069030008000000006B0300086D0300085E
:10004000CB8C0008CB8C0008CB8C0008CB8C000834
:10005000CB8C0008CB8C0008BF630008CB8C000859
:10006000CB8C0008CB8C0008CB8C0008CB8C000814
:10007000CB8C0008CB8C0008CB8C0008CB8C000804
:10008000CB8C0008CB8C0008CB8C0008CB8C0008F4
:10009000CB8C0008CB8C0008CB8C0008FB630008DD
:1000A000CB8C0008CB8C0008CB8C0008CB8C0008D4
:1000B000CB8C0008CB8C0008CB8C0008CB8C0008C4
:1000C000CB8C0008CB8C0008CB8C0008CB8C0008B4
:1000D000CB8C0008CB8C0008CB8C0008CB8C0008A4
:1000E000DB630008CB8C0008CB8C0008CB8C0008AD
:1000F000CB8C0008CB8C0008CB8C0008CB8C000884
:10010000CB8C0008CB8C000881020008CB8C000847
:10011000CB8C0008CB8C0008CB8C0008CB8C000863
:10012000CB8C0008CB8C0008CB8C0008CB8C000853
:10013000DFF80CD008F000FE004800474501000839
:10014000800700201CB5482006F00CFC4FF4E1307D
:1001500006F0ADFC4FF4165006F06CFC06F056FCB1
:1001600006F028FA06F090F806F0BAF806F05AF809
:1001700006F0FAF900F0DEFB02F041F806F062FA50
:1001800018E02AA010210B46C822CDE900106421F6
:100190003C2006F007F8C82006F0FEFB4FF6FF7083
:1001A0009223EF22822100903C2005F032FDC820EE
:1001B00006F0F2FB06F067FB0028E2D11F201E4983
:1001C00008801EA010210B46C822CDE90010114660
:1001D0003C2005F0E7FF1DA010210B46C822CDE909
:1001E0000010A0213C2005F0DDFF1BA010210B46D4
:1001F000C822CDE90010B4213C2005F0D3FF4FF414
:1002000078400D49088017A010211823C822CDE995
:1002100000101E21282005F0C5FF0121174807F016
:100220004FFD01E006F0DAF9FCE7000044485431E4
:1002300031204572726F72000E0100204144435F0D
:100240004348305F56414C3A0000000054656D70E1
:100250003A2020430000000048756D693A202025AF
:100260000000000050687973696373204261736510
:100270002050726F6A65637400000000000C00403B
:100280001CB53B48008810F0010F62D04FF6FE709D
:100290003749088037480078012802D100203649C4
:1002A00008603448007810B901203349086006F02E
:1002B00029FB06F0A0F93148006848B90020304910
:1002C000087001202F49087000F0C9F900F0FAF910
:1002D0002D48006840B90120294908702949087053
:1002E00000F0BDF900F060FA2848006840B901202C
:1002F000204988702649087000F0B1F900F0DAFA58
:100300001E480068012800D100E000201E4909684D
:10031000012900D100E0002108401C490968012999
:1003200000D100E00021084213D01AA018210B468A
:10033000C822CDE9001064210A2005F033FF1BA07C
:1003400018210B46C822CDE9001082210A2005F0B1
:1003500029FF1CBD704700BFFEE700BFFEE700BFDE
:10036000FEE700BFFEE77047704770477047000028
:10037000100C00407D000020A00121421401214208
:100380000D0100200C010020180121421C01214216
:100390000B0100205377697463682069736E2774BA
:1003A000206F70656E21212121000000506C656175
:1003B0007365206F70656E21212121002DE9F041C8
:1003C00005460E461746002406E015F8018B404608
:1003D00006F0A9FB601CC4B2B442F6DB002405E0C1
:1003E00006F0AFFBFC490855601CC4B2BC42F7DB09
:1003F000F948407A10B90120BDE8F0810020FBE700
:1004000010B504460C221146F448FFF7D7FFB8B1E7
:10041000012C09D10C220D21F148FFF7CFFF08B1C3
:10042000012010BD0020FCE7022C0BD10C220D2175
:10043000EC48FFF7C3FF08B10120F2E70020F0E726
:100440000020EEE70020ECE710B510221121E6486D
:10045000FFF7B4FF40B1E048C17A807A01EB002099
:10046000E2490860012010BD0020FCE770B50025BE
:10047000002410E00120FFF7C3FF012809D1FFF796
:10048000E3FF0546012D02D1D848007870BDFF205A
:10049000FCE7601CC4B2142CECDB0020F6E770B55E
:1004A0000546002400BF05E0D148005DCA49085553
:1004B000601CC4B2102CF7DBC7480573807B28444E
:1004C000C54988730C221021C348FFF777FF012824
:1004D00000D170BD0020FCE770B50024002518E0B5
:1004E0000120FFF78DFF0446012C0BD10025C149E7
:1004F00008604FF0640006F04FFA0020BE49C1F8D2
:10050000940107E02CB9681CC5B2282D01DB00203E
:1005100070BDE5E700BF00250120B64908604FF037
:10052000640006F039FA0020B349C1F894014FF491
:10053000FA6006F031FA2FE00220FFF761FF04466F
:10054000012C22D10C221146AC48FFF737FFD0B165
:100550000120A84908604FF0640006F01DFA002051
:10056000A549C1F89401642006F016FA0120A149BA
:1005700008604FF0640006F00FFA00209E49C1F8B1
:1005800094010120C4E70020C2E72CB9681CC5B261
:10059000192D01DB0020BBE7CEE77CB50446002522
:1005A000254697A018210B46C822CDE900106421EA
:1005B0000A2005F0F7FD0A2095FBF0F03030934952
:1005C00008700A2095FBF0F100FB115030308F4984
:1005D0004870084618210B46C822CDE90010642156
:1005E000084605F0DFFD8AA018210B46C822CDE998
:1005F000001064217D2005F0D5FD7CBD1CB5884828
:10060000007888B987A018210B46C822CDE90010D0
:1006100082210A2005F0C6FD0020864908604FF0BF
:1006200001008549C1F8A0017D480078012811D159
:1006300082A018210B46C822CDE9001082210A2091
:1006400005F0B0FD0020814908604FF001008049AD
:10065000C1F888014FF00000FFF79FFF1CBD10B5E7
:10066000002422E00C2210217A48FFF7A7FEA8B14F
:100670000020704908604FF01E0006F08DF901203F
:100680005D49C1F894010020FFF787FF4FF4967091
:1006900006F082F900205749086008E001206B4904
:1006A00008606B49C1F8880101E0062CDADB00BF65
:1006B00069480078012804D1FFF7A0FF00206649AF
:1006C000087010BD10B5FFF7D1FE644908700846E8
:1006D0000078012819DB08460078A22815DC0846B6
:1006E0000078FFF75AFF5D480078012804D105F033
:1006F0000DFF01205A49087058480078022804D19B
:1007000005F017FF0020564908700120394908609C
:100710004FF0640006F040F900203749C1F8940119
:10072000002404E0322006F037F9601CC4B2142C17
:10073000F8DB4A480078FF282CD10020FFF72DFF76
:1007400001202C4908604FF0640006F025F90020D4
:100750002949C1F89401642006F01EF901202549B9
:1007600008604FF0640006F017F900202249C1F834
:100770009401642006F010F901201E4908604FF032
:10078000640006F009F900201B49C1F894016420B7
:1007900006F002F930480078012804D1FFF72EFF57
:1007A00000202D49087010BD10B5FFF795FE0128F7
:1007B0005AD12C490978491CC8B2FFF770FE48B1DC
:1007C00028480078401C2749087008460078FFF741
:1007D000E4FE65E064E0000050030020AC0000206F
:1007E000BA000020C7000020D4000020040100202F
:1007F000E50000209401224200002242F500002082
:1008000046696E6765723A2000000000080100200A
:1008100020202020202020202020202020202000F8
:100820000D0100204C6F636B3A20204964656E66B1
:100830006974790088812242000021424C6F636B09
:100840003A2020496E70757420202000A0012142BA
:1008500000802242900000200C01002002010020B4
:100860007D0000200101002000202449086004468A
:100870000CE00A2006F090F8214800686FEA0000BA
:100880002049C1F8A00104F10100C4B2052CF0DB3D
:1008900000201B4908604FF001001B49C1F894017A
:1008A0001A480078012804D1FFF7A8FE0020174954
:1008B000087010BD1CB50020154908700C221146A7
:1008C0001448FFF77BFD00200D4908604FF0010040
:1008D0001149C1F8880111A04FF018010B464FF0E3
:1008E000C802CDE900104FF082014FF00A0005F078
:1008F00059FC00200E4908701CBD000094012242E2
:10090000A001214200002142000022420C010020EF
:100910000B010020A000002000802242436C656192
:100920007220204F4B21202020202020202000005A
:100930000101002008B50121142006F029FD4AF22A
:10094000E000ADF8000048208DF8030069460C482F
:1009500006F068FA2020ADF8000048208DF803006A
:100960006946084806F05EFA4FF40050ADF8000002
:1009700048208DF803006946024806F053FA08BD86
:10098000000801400010014010B504464FF480718A
:10099000FE4806F0F4FA4FF40071FC4806F0EFFA56
:1009A0002146FB4806F0F2FA8021F84806F0E7FA03
:1009B0008021F64806F0E1FA4FF40071F34806F0A2
:1009C000DCFA10BD10B504464FF48071EF4806F014
:1009D000D4FA4FF40071ED4806F0D1FA2146EC4804
:1009E00006F0D4FA8021E94806F0C9FA8021E748E8
:1009F00006F0C3FA4FF40071E44806F0BEFA10BDE9
:100A000010B54FF08830E2490860091D08600020E9
:100A1000DF490C3108608915DC4806F0AEFA4FF466
:100A20000071DA4806F0ABFA4021D84806F0A7FA80
:100A3000D8488088A0F50941893902D1022005F003
:100A4000C6FFD34806F088FA04464021CF4806F096
:100A500094FA4FF40071CD4806F08FFA4FF033301E
:100A6000CB490860091D08604FF6FF70C8490C317A
:100A70000860204610BD70B504460D462046FFF7BD
:100A800083FF4FF48071C14806F077FA4FF400718C
:100A9000BE4806F074FA2946BD4806F077FA802170
:100AA000BA4806F06CFA8021B84806F066FA4FF4AE
:100AB0000071B64806F061FA70BD10B504462046D4
:100AC000FFF762FFFFF79CFF10BD10B5B149088921
:100AD000FFF75AFF10BD10B504464FF48071AB48C4
:100AE00006F04BFA4FF40071A84806F048FA214688
:100AF000A74806F04BFA8021A44806F040FA80216E
:100B0000A24806F03AFA4FF40071A04806F035FA10
:100B100010BD30B5014601F01F04C1F34513CA0AE8
:100B2000E50205EB43151544A8B230BD70B5044687
:100B30000D4698488088A0F51341413905D0954865
:100B40008088A0F5A641103975D192494889FFF7F0
:100B50001BFF4FF480718D4806F00FFA4FF40071BF
:100B60008A4806F00CFA2112894806F00FFA802113
:100B7000864806F004FA8021844806F0FEF94FF416
:100B80000071824806F0F9F94FF480717F4806F051
:100B9000F4F94FF400717D4806F0F1F9E1B27C48B8
:100BA00006F0F4F98021794806F0E9F980217748C8
:100BB00006F0E3F94FF40071744806F0DEF9754968
:100BC0008889FFF7E1FE4FF48071704806F0D5F98F
:100BD0004FF400716D4806F0D2F929126C4806F006
:100BE000D5F98021694806F0CAF98021674806F0E6
:100BF000C4F94FF40071654806F0BFF94FF48071F5
:100C0000624806F0BAF94FF40071604806F0B7F98F
:100C1000E9B25F4806F0BAF980215C4806F0AFF906
:100C200080215A4806F0A9F94FF40071574806F0A0
:100C3000A4F928E1FFE757488088A0F5D04104399E
:100C40007ED154488079012804D152480088401E42
:100C5000001B84B24F494889FFF796FE4FF480711C
:100C60004A4806F08AF94FF40071484806F087F9BF
:100C70002112474806F08AF98021444806F07FF99E
:100C80008021424806F079F94FF400713F4806F0A0
:100C900074F94FF480713D4806F06FF94FF400711C
:100CA0003A4806F06CF9E1B2394806F06FF9802154
:100CB000364806F064F98021344806F05EF94FF4B6
:100CC0000071324806F059F932498889FFF75CFE15
:100CD0004FF480712D4806F050F94FF400712B4805
:100CE00006F04DF929122A4806F050F980212748CC
:100CF00006F045F98021254806F03FF94FF40071D0
:100D0000224806F03AF94FF48071204806F035F990
:100D10004FF400711D4806F032F9E9B21C4806F0A4
:100D200035F98021194806F02AF98021174806F084
:100D300024F94FF40071154806F01FF9A3E0FFE70E
:100D400014488088A0F5AA4110397CD111494889FE
:100D5000FFF71AFE4FF480710C4806F00EF94FF4BD
:100D600000710A4806F00BF92112094806F00EF945
:100D70008021064806F003F98021044806F0FDF8BA
:100D80004FF40071014806F0F8F805E0001001404A
:100D9000000C014062030020F9494989491C88B2CE
:100DA000FFF7F2FD4FF48071F64806F0E6F84FF4D5
:100DB0000071F44806F0E3F8E1B2F34806F0E6F813
:100DC0008021F04806F0DBF88021EE4806F0D5F8E7
:100DD0004FF40071EB4806F0D0F8E9498889FFF735
:100DE000D3FD4FF48071E74806F0C7F84FF4007167
:100DF000E44806F0C4F82912E34806F0C7F8802159
:100E0000E04806F0BCF88021DE4806F0B6F84FF462
:100E10000071DC4806F0B1F8D9498989491C88B2CB
:100E2000FFF7B2FD4FF48071D64806F0A6F84FF4F4
:100E30000071D44806F0A3F8E9B2D34806F0A6F84A
:100E40008021D04800E00BE006F099F88021CD48E1
:100E500006F093F84FF40071CA4806F08EF812E0DD
:100E6000C7488079012804D1C5480088401E001B6E
:100E700084B2C34948892146FFF7FDFDC0498889EE
:100E80002946FFF7F8FD70BD2DE9F04105460E46F5
:100E9000BB480088A84203DDB9484088B04202DC64
:100EA0000020BDE8F08131462846FFF73FFEB448F8
:100EB0008088A0F5134141390BD0B1488088A0F556
:100EC000D041043905D0AE488088A0F5A64110393C
:100ED00003D12E20FFF758FD0DE0A9488088A0F52A
:100EE000AA41103904D14FF43850FFF74DFD02E00C
:100EF0002220FFF749FD4FF08830A3490860091D03
:100F000008604FF6FF70A0490C31086089159D48B4
:100F100006F033F84FF400719A4806F030F840219B
:100F2000984806F02CF8012005F051FD4021954825
:100F300006F023F84021934806F021F8012005F03F
:100F400046FD914806F008F8044640218D4806F019
:100F500014F88B488088A0F5134141390BD088489C
:100F60008088A0F5A641103905D085488088A0F575
:100F7000AA41103911D14021824806F000F8824878
:100F800005F0EAFF804640217E4805F0F6FFE7B213
:100F90004FF6FF7000EA072711E079488088A0F536
:100FA000D04104390BD14021764805F0E8FF4021BB
:100FB000744805F0E2FF744805F0CEFF04464FF494
:100FC0000071704805F0D9FF4FF033306E4908606A
:100FD000091D08604FF6FF706B490C3108606848C6
:100FE0008088A0F51341253917D065488088A0F581
:100FF0008A41353911D062488088A0F58A4131395B
:101000000BD05F488088A0F50941893905D05C483C
:101010008088A0F53541053901D1204641E758487F
:101020008088A0F5134141390BD055488088A0F540
:10103000A641103905D052488088A0F5AA41103940
:1010400007D1E012C002B91240EA411040EAE8209C
:1010500027E72046FFF75DFD23E710B54848808865
:10106000A0F5134141390BD045488088A0F5D04107
:10107000043905D042488088A0F5A641103903D133
:101080002920FFF781FC0FE03D488088A0F5AA41A8
:10109000103904D14FF42450FFF776FC04E040F2FD
:1010A00073110720FFF7E7FC10BD10B534488088A6
:1010B000A0F5134141390BD031488088A0F5D041CB
:1010C000043905D02E488088A0F5A641103903D1F7
:1010D0002820FFF759FC0EE029488088A0F5AA4196
:1010E000103904D14FF42050FFF74EFC03E00021EB
:1010F0000720FFF7C0FC10BD2DE9F0410546002494
:1011000000271F48807901281ED11D488088A0F53E
:10111000D041043918D0082D15D2DFE805F00406B7
:10112000080A0C0E101206250DE007250BE0042519
:1011300009E0052507E0012505E0002503E003257A
:1011400001E0022500BF00BF0D488088A0F51341D3
:10115000413911D00A488088A0F5D04104390BD01C
:1011600007488088A0F5A641103905D0044880883A
:10117000A0F5AA4110397CD1082D24D206E0000048
:101180006203002000100140000C0140DFE805F080
:101190000406090C0F12151800BF14E044F0800477
:1011A00011E044F040040EE044F0C0040BE044F0D1
:1011B000200408E044F0600405E044F0A00402E0EC
:1011C00044F0E00400BF00BFFE488088A0F5AA41BB
:1011D000103902D14FF4585700E03627F94880887B
:1011E000A0F5A641103907D0F6488088A0F5AA419D
:1011F000103901D044F00804F2488088A0F5D041AD
:10120000043901D144F0020421463846FFF733FC8B
:1012100014F0200F0DD0EB480088EA494988884235
:1012200014DAE84806884088E6490880084646807F
:101230000CE0E4480088E3494988884206DDE1483B
:1012400006884088DF49088008464680DD48808857
:10125000A0F5AA4110397CD1DA494889FFF794FBFF
:101260004FF48071D84805F088FE4FF40071D648DD
:1012700000E0FEE105F083FE0021D44805F086FE83
:101280008021D14805F07BFE8021CF4805F075FE16
:101290004FF40071CC4805F070FECA494989491CD9
:1012A00088B2FFF771FB4FF48071C74805F065FE07
:1012B0004FF40071C44805F062FE0021C34805F0F8
:1012C00065FE8021C04805F05AFE8021BE4805F029
:1012D00054FE4FF40071BC4805F04FFEB9494989EE
:1012E000891C88B2FFF750FB4FF48071B64805F0B7
:1012F00044FE4FF40071B44805F041FEB148008847
:10130000401EC0F30F21B14805F040FE8021AE48D9
:1013100005F035FE8021AC4805F02FFE4FF400713A
:10132000A94805F02AFEA7494989C91C88B2FFF7D8
:101330002BFB4FF48071A44805F01FFE4FF40071A1
:10134000A14805F01CFE9F480078401EC1B29F488E
:1013500000E098E005F01AFE80219B4805F00FFEA2
:101360008021994805F009FE4FF40071964805F078
:1013700004FE94498889FFF707FB4FF48071924877
:1013800005F0FBFD4FF400718F4805F0F8FD0021DA
:101390008E4805F0FBFD80218B4805F0F0FD802193
:1013A000894805F0EAFD4FF40071874805F0E5FD36
:1013B00084498989491C88B2FFF7E6FA4FF48071A5
:1013C000814805F0DAFD4FF400717F4805F0D7FD44
:1013D00000217E4805F0DAFD80217B4805F0CFFD35
:1013E0008021794805F0C9FD4FF40071764805F079
:1013F000C4FD74498989891C88B2FFF7C5FA4FF486
:101400008071714805F0B9FD4FF400716E4805F028
:10141000B6FD6C484088401EC0F30F216B4805F0B4
:10142000B5FD8021684805F0AAFD8021664805F0D9
:10143000A4FD4FF40071644805F09FFD614989895E
:10144000C91C88B2FFF7A0FA4FF480715E4805F01E
:1014500094FD4FF400715C4805F091FD5948807887
:10146000401EC1B2594805F091FD8021564805F053
:1014700086FD8021544805F080FD4FF400715248EC
:1014800005F07BFD27E14F494889FFF77DFA4FF4CE
:1014900080714D4805F071FD4FF400714A4805F028
:1014A0006EFD0021494805F071FD8021464805F098
:1014B00066FD8021444805F060FD4FF4007142480C
:1014C00005F05BFD4FF480713F4805F056FD4FF489
:1014D00000713D4805F053FD00213C4805F056FDE4
:1014E0008021394805F04BFD8021374805F045FD46
:1014F0004FF40071344805F040FD4FF480713248DC
:1015000005F03BFD4FF400712F4805F038FD2D48E4
:101510000088401EC0F30F212C4805F037FD8021C4
:10152000294805F02CFD8021274805F026FD4FF4C1
:101530000071254805F021FD4FF48071224805F027
:101540001CFD4FF40071204805F019FD1D4800787E
:10155000401EC1B21D4805F019FD80211A4805F052
:101560000EFD8021184805F008FD4FF40071164863
:1015700005F003FD13498889FFF706FA4FF48071DF
:10158000114805F0FAFC4FF400710F4805F0F7FC24
:1015900000210E4805F0FAFC80210B4805F0EFFC15
:1015A0008021094805F0E9FC4FF40071064805F078
:1015B000E4FC4FF48071044805F0DFFC4FF4007147
:1015C000014805E06203002000100140000C0140CA
:1015D00005F0D5FC0021FE4805F0D8FC8021FD482F
:1015E00005F0CDFC8021FB4805F0C7FC4FF40071ED
:1015F000F84805F0C2FC4FF48071F64805F0BDFCD8
:101600004FF40071F34805F0BAFCF3484088401EDF
:10161000C0F30F21EE4805F0B9FC8021ED4805F03C
:10162000AEFC8021EB4805F0A8FC4FF40071E948BE
:1016300005F0A3FC4FF48071E64805F09EFC4FF4E2
:101640000071E44805F09BFCE3488078401EC1B27D
:10165000DF4805F09BFC8021DE4805F090FC8021EE
:10166000DC4805F08AFC4FF40071DA4805F085FC8F
:1016700031E0082D1CD2DFE805F004070A0D0F1237
:10168000151844F0300413E044F0100410E044F066
:1016900020040DE000BF0BE044F0380408E044F003
:1016A000280405E044F0180402E044F0080400BFF8
:1016B00000BFC9488088A0F50941893904D11127A4
:1016C00046F24000044302E0032744F480542146DC
:1016D0003846FFF7D0F9BDE8F08170B504460D46F5
:1016E00029462046FFF722FAFFF7EFF94FF4807101
:1016F000B84805F042FC4FF40071B64805F03FFCD5
:10170000B6480188B24805F041FC8021B14805F097
:1017100036FC8021AF4805F030FC4FF40071AD4835
:1017200005F02BFC70BD70B504460D461646AA4860
:101730008088A0F51341413905D0A7488088A0F5DD
:10174000A641103975D1A4494889FFF71DF94FF416
:101750008071A04805F011FC4FF400719D4805F020
:101760000EFC21129A4805F011FC8021994805F0E1
:1017700006FC8021974805F000FC4FF40071954865
:1017800005F0FBFB4FF48071924805F0F6FB4FF437
:101790000071904805F0F3FBE1B28D4805F0F6FBCF
:1017A00080218C4805F0EBFB80218A4805F0E5FBA1
:1017B0004FF40071874805F0E0FB87498889FFF7FF
:1017C000E3F84FF48071834805F0D7FB4FF40071C4
:1017D000804805F0D4FB29127D4805F0D7FB802115
:1017E0007C4805F0CCFB80217A4805F0C6FB4FF41D
:1017F0000071784805F0C1FB4FF48071754805F021
:10180000BCFB4FF40071734805F0B9FBE9B27048B6
:1018100005F0BCFB80216F4805F0B1FB80216D48CD
:1018200005F0ABFB4FF400716A4805F0A6FB2CE114
:10183000FFE769488088A0F5AA4110397ED1664942
:101840004889FFF7A1F84FF48071624805F095FBD5
:101850004FF400715F4805F092FB21125C4805F0DF
:1018600095FB80215B4805F08AFB8021594805F0F3
:1018700084FB4FF40071574805F07FFB56494989B6
:10188000491C88B2FFF780F84FF48071514805F089
:1018900074FB4FF400714F4805F071FBE1B24C4806
:1018A00005F074FB80214B4805F069FB8021494815
:1018B00005F063FB4FF40071464805F05EFB4649B6
:1018C0008889FFF761F84FF48071424805F055FBB5
:1018D0004FF400713F4805F052FB29123C4805F0D7
:1018E00055FB80213B4805F04AFB8021394805F033
:1018F00044FB4FF40071374805F03FFB36498989B6
:10190000491C88B2FFF740F84FF48071314805F068
:1019100034FB4FF400712F4805F031FBE9B22C483D
:1019200005F034FB80212B4805F029FB8021294854
:1019300005F023FB4FF40071264800E002E005F0BB
:101940001CFBA2E024488088A0F5D04104397CD15A
:1019500021488079012804D11F480088401E001BBF
:1019600084B21D494889FFF70FF84FF48071194878
:1019700005F003FB4FF40071164805F000FB21123F
:10198000134805F003FB8021124805F0F8FA802186
:10199000104805F0F2FA4FF400710E4805F0EDFA28
:1019A0004FF480710B4805F0E8FA4FF400710948D4
:1019B00005F0E5FAE1B2064805F0E8FA80210548AD
:1019C00005F0DDFA8021034805F0D7FA08E00000B1
:1019D000000C014000100140620300200E010020B5
:1019E0004FF40071FD4805F0C8FAFD498889FEF7FB
:1019F000CBFF4FF48071F94805F0BFFA4FF4007146
:101A0000F64805F0BCFA2912F64805F0BFFA802125
:101A1000F24805F0B4FA8021F04805F0AEFA4FF430
:101A20000071EE4805F0A9FA4FF48071EB4805F01B
:101A3000A4FA4FF40071E94805F0A1FAE9B2E948C7
:101A400005F0A4FA8021E54800E00BE005F097FAE4
:101A50008021E24805F091FA4FF40071DF4805F06B
:101A60008CFA12E0DE488079012804D1DC48008835
:101A7000401E001B84B2DA4948892146FEF7FBFF6D
:101A8000D74988892946FEF7F6FF4FF48071D3487D
:101A900005F075FA4FF40071D04805F070FAD0489F
:101AA0000189D04805F072FA8021CC4805F067FA28
:101AB0008021CA4805F061FA4FF40071C74805F06B
:101AC0005CFA4FF48071C54805F057FA4FF4007185
:101AD000C24805F054FA3146C24805F057FA802151
:101AE000BE4805F04CFA8021BC4805F046FA4FF498
:101AF0000071BA4805F041FA70BD10B50446002CDB
:101B000060D1B7498871F02008804FF4A0704880F8
:101B100008468088A0F5134141390BD0B048808831
:101B2000A0F5D041043905D0AD488088A0F5A64184
:101B300010391AD12C20AA4908812A2048812B204B
:101B4000888108468088A0F5D041043905D0A44892
:101B50008088A0F5A641103906D14FF4A070A049A5
:101B600008804FF4F070488095E09D488088A0F58B
:101B70000941893907D12220994908814E2048819D
:101B80004F20888187E096488088A0F5AA411039C7
:101B900010D14FF43050924908814FF428504881B9
:101BA0004FF42C5088814FF4F07008804FF4487047
:101BB000488070E022208A49088120204881212025
:101BC000888168E00120864988714FF4A070088000
:101BD000F020488008468088A0F51341413905D09F
:101BE0007F488088A0F5A641103907D12C207C4978
:101BF00008812A2048812B20888139E07848808814
:101C0000A0F5D041043907D12C20754908812B203B
:101C100048812A2088812BE071488088A0F50941FD
:101C2000893907D122206E4908814F2048814E20F2
:101C300088811DE06A488088A0F5AA41103910D13A
:101C40004FF43050664908814FF4285048814FF4D2
:101C50002C5088814FF4487008804FF4F070488011
:101C600006E022205E4908812120488120208881C9
:101C70005B488088A0F5D041043905D05848808859
:101C8000A0F5A641103906D14FF4F07054490880F0
:101C90004FF4A07048800020FFF72EFA10BD2DE908
:101CA000FF5F04460D4616461F46A019401E86B229
:101CB000E819401E87B24A488088A0F5134141398F
:101CC0000BD047488088A0F5A641103905D044487C
:101CD0008088A0F5D04104397ED141494889FEF77A
:101CE00053FE4FF480713D4805F047F94FF4007101
:101CF0003A4805F044F921123A4805F047F98021A5
:101D0000364805F03CF98021344805F036F94FF4A7
:101D10000071324805F031F94FF480712F4805F019
:101D20002CF94FF400712D4805F029F9E1B22D4846
:101D300005F02CF98021294805F021F98021274858
:101D400005F01BF94FF40071244805F016F94FF423
:101D50008071224805F011F94FF400711F4805F019
:101D60000EF931121F4805F011F980211B4805F0CA
:101D700006F98021194805F000F94FF40071174861
:101D800005F0FBF84FF48071144805F0F6F84FF4B5
:101D90000071124805F0F3F8F1B2124805F0F6F8B8
:101DA00080210E4805F0EBF880210C4805F0E5F89D
:101DB0004FF40071094805F0E0F809498889FEF7F9
:101DC000E3FD4FF48071054805F0D7F84FF400713A
:101DD000024805F0D4F807E069E000000010014077
:101DE00062030020000C01402912FE4805F0CEF8E5
:101DF0008021FD4805F0C3F88021FB4805F0BDF8BF
:101E00004FF40071F84805F0B8F84FF48071F648C7
:101E100005F0B3F84FF40071F34805F0B0F8E9B2FB
:101E2000F04805F0B3F88021EF4805F0A8F88021CC
:101E3000ED4805F0A2F84FF40071EB4805F09DF86D
:101E40004FF48071E84805F098F84FF40071E648C7
:101E500005F095F83912E34805F098F88021E2483A
:101E600005F08DF88021E04805F087F84FF4007107
:101E7000DD4805F082F84FF48071DB4805F07DF80D
:101E80004FF40071D84805F07AF8F9B2D54805F05A
:101E90007DF88021D44805F072F88021D24805F001
:101EA0006CF84FF40071D04805F067F853E1CF4863
:101EB0008088A0F5AA4110397DD1CC494889FEF728
:101EC00063FD4FF48071C84805F057F84FF4007176
:101ED000C54805F054F82112C24805F057F8802192
:101EE000C14805F04CF88021BF4805F046F84FF492
:101EF0000071BD4805F041F8BC494989491C88B2C8
:101F0000FEF742FD4FF48071B74805F036F84FF404
:101F10000071B54805F033F8E1B2B24805F036F883
:101F20008021B14805F02BF88021AF4805F025F855
:101F30004FF40071AC4805F020F8AC494989891C80
:101F400088B2FEF721FD4FF48071A74805F015F81F
:101F50004FF40071A44805F012F83112A14805F0C1
:101F600015F88021A04805F00AF880219E4805F068
:101F700004F84FF400719C4804F0FFFF9B49498925
:101F8000C91C88B2FEF700FD4FF48071964804F03A
:101F9000F4FF4FF40071944804F0F1FFF1B291485E
:101FA00004F0F4FF8021904804F0E9FF80218E487E
:101FB00004F0E3FF00E087E04FF400718A4804F08A
:101FC000DCFF8A498889FEF7DFFC4FF48071864880
:101FD00004F0D3FF4FF40071834804F0D0FF2912BE
:101FE000804804F0D3FF80217F4804F0C8FF80219F
:101FF0007D4804F0C2FF4FF400717B4804F0BDFF40
:102000007A498989491C88B2FEF7BEFC4FF4807179
:10201000754804F0B2FF4FF40071734804F0AFFF4D
:10202000E9B2704804F0B2FF80216F4804F0A7FFC6
:1020300080216D4804F0A1FF4FF400716A4804F05C
:102040009CFF6A498989891C88B2FEF79DFC4FF480
:102050008071654804F091FF4FF40071624804F00C
:102060008EFF39125F4804F091FF80215E4804F032
:1020700086FF80215C4804F080FF4FF400715A48CD
:1020800004F07BFF59498989C91C88B2FEF77CFCA2
:102090004FF48071544804F070FF4FF400715248BF
:1020A00004F06DFFF9B24F4804F070FF80214E48F4
:1020B00004F065FF80214C4804F05FFF4FF400718D
:1020C000494804F05AFF46E04848807901280ED17B
:1020D000A846B94645480088801B401E80B2009043
:1020E00042480088001B401E1FFA80FB03E0A04608
:1020F000B1460095BB463D488088A0F50941893925
:102100000DD14FF0440A4420039048EA09201FFAF9
:1021100080F8C146452002904620019007E04FF02C
:10212000500A5120039052200290532001904146C2
:102130005046FEF7A0FC49460398FEF79CFC009928
:102140000298FEF798FC59460198FEF794FC294640
:102150002046FEF7EBFCBDE8FF9F70B50446002665
:10216000224805884088454320488088A0F5D04112
:10217000043916D11D488079012812D100201B494D
:1021800088712A2048812B20888100210846FEF78B
:10219000CDFC0120154988712B2048812A20888197
:1021A00003E000210846FEF7C1FCFEF78EFC002686
:1021B00022E04FF480710C4804F0DFFE4FF4007110
:1021C000094804F0DCFE2146064804F0DFFE8021C9
:1021D000054804F0D4FE8021034804F0CEFE4FF4FD
:1021E000007105E0000C0140001001406203002076
:1021F000FE4804F0C2FE761CAE42DAD370BD08B5CC
:102200000121192005F0C4F80121F94804F0D9FE94
:102210004FF4F860ADF8000010208DF803000320A3
:102220008DF802006946F14804F0FCFD4FF4F861B6
:10223000EE4804F0A2FE4FF6FF70ADF800006946CC
:10224000EC4804F0EFFD4FF6FF71EA4804F095FE0C
:10225000322004F0A1FB01210020FEF70CFC32200B
:1022600004F09AFB0020FEF728FCE349888008462A
:102270008088FF280ADB08468088A0F57F41FF3967
:1022800004D0DD488088B0F5134F7CD1D320FEF711
:102290007BFBFEF7B5FBFEF7B3FBFEF7B1FBD649C0
:1022A0008880084680884FF6FF7101EA0020D249F5
:1022B0008880FEF7A5FBD04989880843CE498880ED
:1022C00008468088A0F5134141396CD0BF20FEF745
:1022D0005BFBFEF795FBFEF793FBFEF791FBFEF72A
:1022E0008FFBC5498880084680884FF6FF7101EA58
:1022F0000020C1498880FEF783FBBF4989880843D5
:10230000BD49888008468088A0F5D04104394AD06C
:10231000D420FEF739FBFEF773FBFEF771FBFEF7E7
:102320006FFBB5498880084680884FF6FF7101EA47
:102330000020B1498880FEF763FBAF4989880843D4
:10234000AD49888008468088A0F5A64110392AD07A
:102350004FF45A40FEF718FBFEF752FB4FF45B4078
:10236000FEF712FBFEF74CFBA349888008468088E5
:102370004FF6FF7101EA00209F4988804FF45C40CE
:10238000FEF702FB00E00EE0FEF73AFB9A4989886F
:1023900008439949888008468088B0F5004F02D1EB
:1023A00045F2105088809448818894A006F024FD5E
:1023B00091488088A0F5134141397CD1CF20FEF7A8
:1023C000E3FA0020FEF7FEFAC120FEF7FBFA302008
:1023D000FEF7F8FAED20FEF7D7FA6420FEF7F2FADE
:1023E0000320FEF7EFFA1220FEF7ECFA8120FEF749
:1023F000E9FAE820FEF7C8FA8520FEF7E3FA102094
:10240000FEF7E0FA7A20FEF7DDFACB20FEF7BCFA01
:102410003920FEF7D7FA2C20FEF7D4FA0020FEF779
:10242000D1FA3420FEF7CEFA0220FEF7CBFAF720DD
:10243000FEF7AAFA2020FEF7C5FAEA20FEF7A4FA72
:102440000020FEF7BFFA0020FEF7BCFAC020FEF71E
:102450009BFA1B20FEF7B6FAC120FEF795FA012081
:10246000FEF7B0FAC520FEF78FFA3020FEF7AAFA81
:102470003020FEF7A7FAC720FEF786FAB720FEF74E
:10248000A1FA3620FEF780FA4820FEF79BFA3A20A0
:10249000FEF77AFA5520FEF795FAB120FEF774FAA6
:1024A0000020FEF78FFA1A20FEF78CFAB620FEF70E
:1024B0006BFA0A2000E0A9E0FEF784FAA220FEF7FA
:1024C00081FAF220FEF760FA0020FEF77BFA262060
:1024D000FEF75AFA0120FEF775FAE020FEF754FAEB
:1024E0000F20FEF76FFA2A20FEF76CFA2820FEF77D
:1024F00069FA0820FEF766FA0E20FEF763FA082054
:10250000FEF760FA5420FEF75DFAA920FEF75AFAAA
:102510004320FEF757FA0A20FEF754FA0F20FEF781
:1025200051FA0020FEF74EFA0020FEF74BFA002089
:10253000FEF748FA0020FEF745FAE120FEF724FAFC
:102540000020FEF73FFA1520FEF73CFA1720FEF7B1
:1025500039FA0720FEF736FA1120FEF733FA062083
:10256000FEF730FA2B20FEF72DFA5620FEF72AFA56
:102570003C20FEF727FA0520FEF724FA1020FEF78C
:1025800021FA0F20FEF71EFA3F20FEF71BFA3F202C
:10259000FEF718FA0F20FEF715FA2B20FEF7F4F9D4
:1025A0000020FEF70FFA0020FEF70CFA0120FEF7DC
:1025B00009FA3F20FEF706FA2A20FEF7E5F9002087
:1025C000FEF700FA0020FEF7FDF90020FEF7FAF909
:1025D000EF20FEF7F7F91120FEF7D6F9782004F086
:1025E000DBF92920FEF7D0F903F008BB0010014009
:1025F00000023000000C014062030020204C4344E4
:102600002049443A25780D0A00000000FE488088E1
:10261000A0F5D04104397CD11120FEF7B5F9142082
:1026200004F0BAF9D020FEF7AFF90720FEF7CAF997
:102630004220FEF7C7F91D20FEF7C4F9D120FEF7AE
:10264000A3F90020FEF7BEF91A20FEF7BBF9092016
:10265000FEF7B8F9D220FEF797F90120FEF7B2F99C
:102660002220FEF7AFF9C020FEF78EF91020FEF70A
:10267000A9F93B20FEF7A6F90020FEF7A3F90220F6
:10268000FEF7A0F91120FEF79DF9C520FEF77CF9B1
:102690000320FEF797F9C820FEF776F90020FEF731
:1026A00091F92520FEF78EF92120FEF78BF9052000
:1026B000FEF788F90020FEF785F90A20FEF782F977
:1026C0006520FEF77FF92520FEF77CF97720FEF7DD
:1026D00079F95020FEF776F90F20FEF773F9002004
:1026E000FEF770F9F820FEF74FF90120FEF76AF9BE
:1026F000FE20FEF749F90020FEF764F90220FEF7FC
:1027000061F92020FEF740F93620FEF73DF9082058
:1027100000E02CE0FEF756F93A20FEF735F9552097
:10272000FEF750F92B20FEF72FF90020FEF74AF9AB
:102730000020FEF747F90120FEF744F93F20FEF79D
:1027400041F92A20FEF720F90020FEF73BF900208E
:10275000FEF738F90120FEF735F9DF20FEF732F9F0
:10276000782004F019F92920FEF70EF93CE7A64875
:102770008088A0F5A641103940F07C87ED20FEF757
:1027800003F90120FEF71EF9FE20FEF71BF9EE20EB
:10279000FEF7FAF8DE20FEF715F92120FEF712F910
:1027A000F120FEF7F1F80120FEF70CF9DF20FEF72B
:1027B000EBF81020FEF706F9C420FEF7E5F88F20AD
:1027C000FEF700F9C620FEF7DFF80020FEF7FAF862
:1027D000E220FEF7F7F8E220FEF7F4F8E220FEF739
:1027E000F1F8BF20FEF7D0F8AA20FEF7EBF8B020F2
:1027F000FEF7CAF80D20FEF7E5F80020FEF7E2F834
:102800000D20FEF7DFF80020FEF7DCF81120FEF7C0
:10281000D9F80020FEF7D6F81920FEF7D3F80020EB
:10282000FEF7D0F82120FEF7CDF80020FEF7CAF819
:102830002D20FEF7C7F80020FEF7C4F83D20FEF774
:10284000C1F80020FEF7BEF85D20FEF7BBF80020BF
:10285000FEF7B8F85D20FEF7B5F80020FEF7B2F8F5
:10286000B120FEF791F88020FEF7ACF80020FEF7CB
:10287000A9F88B20FEF7A6F80020FEF7A3F8962013
:10288000FEF7A0F80020FEF79DF8B220FEF77CF8D6
:102890000020FEF797F80020FEF794F80220FEF7DC
:1028A00091F80020FEF78EF80320FEF78BF8002049
:1028B000FEF788F8B320FEF767F80020FEF782F8ED
:1028C0000020FEF77FF80020FEF77CF80020FEF7DE
:1028D00079F80020FEF776F80020FEF773F8002064
:1028E000FEF770F80020FEF76DF80020FEF76AF89A
:1028F0000020FEF767F80020FEF764F80020FEF7DE
:1029000061F80020FEF75EF80020FEF75BF800207B
:10291000FEF758F80020FEF755F80020FEF752F8B1
:102920000020FEF74FF80020FEF74CF80020FEF7DD
:1029300049F80020FEF746F80020FEF743F8002093
:10294000FEF740F80020FEF73DF8B420FEF71CF833
:102950008B20FEF737F80020FEF734F89620FEF7BC
:1029600031F80020FEF72EF8A120FEF72BF800200A
:10297000FEF728F8B520FEF707F80220FEF722F848
:102980000020FEF71FF80320FEF71CF80020FEF7DA
:1029900019F80420FEF716F80020FEF713F8B62009
:1029A000FDF7F2FF0020FEF70DF80020FEF70AF811
:1029B000B720FDF7E9FF0020FEF704F80020FEF73E
:1029C00001F83F20FDF7FEFF0020FDF7FBFF5E2032
:1029D000FDF7F8FF0020FDF7F5FF6420FDF7F2FF9B
:1029E0000020FDF7EFFF8C20FDF7ECFF0020FDF746
:1029F000E9FFAC20FDF7E6FF0020FDF7E3FFDC2058
:102A0000FDF7E0FF002001E062030020FDF7DAFFA0
:102A10007020FDF7D7FF0020FDF7D4FF9020FDF7D1
:102A2000D1FF0020FDF7CEFFEB20FDF7CBFF00200C
:102A3000FDF7C8FFDC20FDF7C5FF0020FDF7C2FF52
:102A4000B820FDF7A1FF0020FDF7BCFF0020FDF737
:102A5000B9FF0020FDF7B6FF0020FDF7B3FF00200F
:102A6000FDF7B0FF0020FDF7ADFF0020FDF7AAFF46
:102A70000020FDF7A7FFBA20FDF786FF2420FDF711
:102A8000A1FF0020FDF79EFF0020FDF79BFF002027
:102A9000FDF798FFC120FDF777FF2020FDF792FF9B
:102AA0000020FDF78FFF5420FDF78CFF0020FDF77D
:102AB00089FFFF20FDF786FF0020FDF783FFC2207E
:102AC000FDF762FF0A20FDF77DFF0020FDF77AFF8A
:102AD0000420FDF777FF0020FDF774FFC320FDF70A
:102AE00053FF3C20FDF76EFF0020FDF76BFF3A20FF
:102AF000FDF768FF0020FDF765FF3920FDF762FF55
:102B00000020FDF75FFF3720FDF75CFF0020FDF799
:102B100059FF3C20FDF756FF0020FDF753FF3620FC
:102B2000FDF750FF0020FDF74DFF3220FDF74AFF73
:102B30000020FDF747FF2F20FDF744FF0020FDF7A1
:102B400041FF2C20FDF73EFF0020FDF73BFF292031
:102B5000FDF738FF0020FDF735FF2620FDF732FF97
:102B60000020FDF72FFF2420FDF72CFF0020FDF7AC
:102B700029FF2420FDF726FF0020FDF723FF232057
:102B8000FDF720FF0020FDF71DFF3C20FDF71AFF99
:102B90000020FDF717FF3620FDF714FF0020FDF79A
:102BA00011FF3220FDF70EFF0020FDF70BFF2F2055
:102BB000FDF708FF0020FDF705FF2C20FDF702FFC1
:102BC0000020FDF7FFFE2920FDF7FCFE0020FDF7A9
:102BD000F9FE2620FDF7F6FE0020FDF7F3FE242087
:102BE000FDF7F0FE0020FDF7EDFE2420FDF7EAFEE4
:102BF0000020FDF7E7FE2320FDF7E4FE0020FDF7AF
:102C0000E1FEC420FDF7C0FE6220FDF7DBFE0020E0
:102C1000FDF7D8FE0520FDF7D5FE0020FDF7D2FE1A
:102C20008420FDF7CFFE0020FDF7CCFEF020FDF75D
:102C3000C9FE0020FDF7C6FE1820FDF7C3FE0020E8
:102C4000FDF7C0FEA420FDF7BDFE0020FDF7BAFE93
:102C50001820FDF7B7FE0020FDF7B4FE5020FDF769
:102C6000B1FE0020FDF7AEFE0C20FDF7ABFE00200C
:102C7000FDF7A8FE1720FDF7A5FE0020FDF7A2FE38
:102C80009520FDF79FFE0020FDF79CFEF320FDF749
:102C900099FE0020FDF796FEE620FDF793FE00204A
:102CA000FDF790FEC520FDF76FFE3220FDF78AFE8E
:102CB0000020FDF787FE4420FDF784FE0020FDF78D
:102CC00081FE6520FDF77EFE0020FDF77BFE76206D
:102CD000FDF778FE0020FDF775FE8820FDF772FEF7
:102CE0000020FDF76FFEC620FDF74EFE2020FDF709
:102CF00069FE0020FDF766FE1720FDF763FE002049
:102D0000FDF760FE0120FDF75DFE0020FDF75AFE95
:102D1000C720FDF739FE0020FDF754FE0020FDF727
:102D200051FE0020FDF74EFE0020FDF74BFEC820AF
:102D3000FDF72AFE0020FDF745FE0020FDF742FECC
:102D40000020FDF73FFE0020FDF73CFEC920FDF707
:102D50001BFE0020FDF736FE0020FDF733FE0020AD
:102D6000FDF730FE0020FDF72DFE0020FDF72AFEC6
:102D70000020FDF727FE0020FDF724FE0020FDF7D0
:102D800021FE0020FDF71EFE0020FDF71BFE0020A7
:102D9000FDF718FE0020FDF715FE0020FDF712FEDE
:102DA0000020FDF70FFE0020FDF70CFE0020FDF7D0
:102DB00009FEE020FDF7E8FD1620FDF703FE0020E8
:102DC000FDF700FE1C20FDF7FDFD0020FDF7FAFDDC
:102DD0002120FDF7F7FD0020FDF7F4FD3620FDF77B
:102DE000F1FD0020FDF7EEFD4620FDF7EBFD002094
:102DF000FDF7E8FD5220FDF7E5FD0020FDF7E2FDBF
:102E00006420FDF7DFFD0020FDF7DCFD7A20FDF7F3
:102E1000D9FD0020FDF7D6FD8B20FDF7D3FD002066
:102E2000FDF7D0FD9920FDF7CDFD0020FDF7CAFD8F
:102E3000A820FDF7C7FD0020FDF7C4FDB920FDF770
:102E4000C1FD0020FDF7BEFDC420FDF7BBFD002045
:102E5000FDF7B8FDCA20FDF7B5FD0020FDF7B2FD76
:102E6000D220FDF7AFFD0020FDF7ACFDD920FDF726
:102E7000A9FD0020FDF7A6FDE020FDF7A3FD002041
:102E8000FDF7A0FDF320FDF79DFD0020FDF79AFD65
:102E9000E120FDF779FD1620FDF794FD0020FDF7F8
:102EA00091FD1C20FDF78EFD0020FDF78BFD2220FB
:102EB000FDF788FD0020FDF785FD3620FDF782FD3A
:102EC0000020FDF77FFD4520FDF77CFD0020FDF78C
:102ED00079FD5220FDF776FD0020FDF773FD64209B
:102EE000FDF770FD0020FDF76DFD7A20FDF76AFD0E
:102EF0000020FDF767FD8B20FDF764FD0020FDF746
:102F000061FD9920FDF75EFD0020FDF75BFDA82027
:102F1000FDF758FD0020FDF755FDB920FDF752FDE6
:102F20000020FDF74FFDC420FDF74CFD0020FDF70C
:102F300049FDCA20FDF746FD0020FDF743FDD220E4
:102F4000FDF740FD0020FDF73DFDD820FDF73AFDDF
:102F50000020FDF737FDE020FDF734FD0020FDF7F0
:102F600031FDF320FDF72EFD0020FDF72BFDE220C3
:102F7000FDF70AFD0520FDF725FD0020FDF722FDE8
:102F80000B20FDF71FFD0020FDF71CFD1B20FDF7AA
:102F900019FD0020FDF716FD3420FDF713FD00207C
:102FA000FDF710FD4420FDF70DFD0020FDF70AFDA3
:102FB0004F20FDF707FD0020FDF704FD6120FDF720
:102FC00001FD0020FDF7FEFC7920FDF7FBFC002051
:102FD000FDF7F8FC8820FDF7F5FC0020FDF7F2FC7A
:102FE0009720FDF7EFFC0020FDF7ECFCA620FDF795
:102FF000E9FC0020FDF7E6FCB720FDF7E3FC00202C
:10300000FDF7E0FCC220FDF7DDFC0020FDF7DAFC57
:10301000C720FDF7D7FC0020FDF7D4FCD120FDF739
:10302000D1FC0020FDF7CEFCD620FDF7CBFC002024
:10303000FDF7C8FCDD20FDF7C5FC0020FDF7C2FC54
:10304000F320FDF7BFFC0020FDF7BCFCE320FDF7FB
:103050009BFC0520FDF7B6FC0020FDF7B3FC0A2021
:10306000FDF7B0FC0020FDF7ADFC1C20FDF7AAFC2D
:103070000020FDF7A7FC3320FDF7A4FC0020FDF79E
:10308000A1FC4420FDF79EFC0020FDF79BFC502096
:10309000FDF798FC0020FDF795FC6220FDF792FCFF
:1030A0000020FDF78FFC7820FDF78CFC0020FDF759
:1030B00089FC8820FDF786FC0020FDF783FC972023
:1030C000FDF780FC0020FDF77DFCA620FDF77AFCD3
:1030D0000020FDF777FCB720FDF774FC0020FDF71A
:1030E00071FCC220FDF76EFC0020FDF76BFCC720D1
:1030F000FDF768FC0020FDF765FCD120FDF762FCC0
:103100000020FDF75FFCD520FDF75CFC0020FDF7FB
:1031100059FCDD20FDF756FC0020FDF753FCF320A1
:10312000FDF750FC0020FDF74DFCE420FDF72CFCE2
:103130000120FDF747FC0020FDF744FC0120FDF7CE
:1031400041FC0020FDF73EFC0220FDF73BFC002087
:10315000FDF738FC2A20FDF735FC0020FDF732FC96
:103160003C20FDF72FFC0020FDF72CFC4B20FDF749
:1031700029FC0020FDF726FC5D20FDF723FC002044
:10318000FDF720FC7420FDF71DFC0020FDF71AFC64
:103190008420FDF717FC0020FDF714FC9320FDF7B9
:1031A00011FC0020FDF70EFCA220FDF70BFC002017
:1031B000FDF708FCB320FDF705FC0020FDF702FC3D
:1031C000BE20FDF7FFFB0020FDF7FCFBC420FDF750
:1031D000F9FB0020FDF7F6FBCD20FDF7F3FB002007
:1031E000FDF7F0FBD320FDF7EDFB0020FDF7EAFB38
:1031F000DD20FDF7E7FB0020FDF7E4FBF320FDF702
:10320000E1FB0020FDF7DEFBE520FDF7BDFB002024
:10321000FDF7D8FB0020FDF7D5FB0020FDF7D2FB22
:103220000020FDF7CFFB0220FDF7CCFB0020FDF7CF
:10323000C9FB2920FDF7C6FB0020FDF7C3FB3C209E
:10324000FDF7C0FB0020FDF7BDFB4B20FDF7BAFBEF
:103250000020FDF7B7FB5D20FDF7B4FB0020FDF774
:10326000B1FB7420FDF7AEFB0020FDF7ABFB842023
:10327000FDF7A8FB0020FDF7A5FB9320FDF7A2FBBF
:103280000020FDF79FFBA220FDF79CFB0020FDF72F
:1032900099FBB320FDF796FB0020FDF793FBBE20C2
:1032A000FDF790FB0020FDF78DFBC420FDF78AFBA6
:1032B0000020FDF787FBCD20FDF784FB0020FDF704
:1032C00081FBD320FDF77EFB0020FDF77BFBDC209C
:1032D000FDF778FB0020FDF775FBF320FDF772FB8F
:1032E0000020FDF76FFBE620FDF74EFB1120FDF7F8
:1032F00069FB0020FDF766FB3420FDF763FB00202F
:10330000FDF760FB5620FDF75DFB0020FDF75AFB43
:103310007620FDF757FB0020FDF754FB7720FDF7E3
:1033200051FB0020FDF74EFB6620FDF74BFB002014
:10333000FDF748FB8820FDF745FB0020FDF742FB29
:103340009920FDF73FFB0020FDF73CFBBB20FDF77C
:1033500039FB0020FDF736FB9920FDF733FB0020F9
:10336000FDF730FB6620FDF72DFB0020FDF72AFB63
:103370005520FDF727FB0020FDF724FB5520FDF726
:1033800021FB0020FDF71EFB4520FDF71BFB002065
:10339000FDF718FB4320FDF715FB0020FDF712FB9E
:1033A0004420FDF70FFB0020FDF70CFBE720FDF7A5
:1033B000EBFA3220FDF706FB0020FDF703FB55205A
:1033C000FDF700FB0020FDF7FDFA7620FDF7FAFA85
:1033D0000020FDF7F7FA6620FDF7F4FA0020FDF76C
:1033E000F1FA6720FDF7EEFA0020FDF7EBFA67200F
:1033F000FDF7E8FA0020FDF7E5FA8720FDF7E2FA8D
:103400000020FDF7DFFA9920FDF7DCFA0020FDF738
:10341000D9FABB20FDF7D6FA0020FDF7D3FA9920A0
:10342000FDF7D0FA0020FDF7CDFA7720FDF7CAFAB4
:103430000020FDF7C7FA4420FDF7C4FA0020FDF78D
:10344000C1FA5620FDF7BEFA0020FDF7BBFA232093
:10345000FDF7B8FA0020FDF7B5FA3320FDF7B2FA10
:103460000020FDF7AFFA4520FDF7ACFA0020FDF78C
:10347000A9FAE820FDF788FA0020FDF7A3FA00205A
:10348000FDF7A0FA9920FDF79DFA0020FDF79AFAC2
:103490008720FDF797FA0020FDF794FA8820FDF7C2
:1034A00091FA0020FDF78EFA7720FDF78BFA0020C5
:1034B000FDF788FA6620FDF785FA0020FDF782FA0D
:1034C0008820FDF77FFA0020FDF77CFAAA20FDF79F
:1034D00079FA0020FDF776FABB20FDF773FA002099
:1034E000FDF770FA9920FDF76DFA0020FDF76AFAF2
:1034F0006620FDF767FA0020FDF764FA5520FDF716
:1035000061FA0020FDF75EFA5520FDF75BFA002016
:10351000FDF758FA4420FDF755FA0020FDF752FA5E
:103520004420FDF74FFA0020FDF74CFA5520FDF737
:1035300049FA0020FDF746FAE920FDF725FAAA200E
:10354000FDF740FA0020FDF73DFA0020FDF73AFABA
:103550000020FDF737FA0020FDF716FAAA20FDF744
:1035600031FACF20FDF710FA0020FDF72BFA0020EA
:10357000FDF728FA0020FDF725FA0020FDF722FAD2
:103580000020FDF71FFA0020FDF71CFA0020FDF7D0
:1035900019FA0020FDF716FA0020FDF713FA0020B3
:1035A000FDF710FA0020FDF70DFA0020FDF70AFAEA
:1035B0000020FDF707FA0020FDF704FA0020FDF7D0
:1035C00001FA0020FDF7FEF90020FDF7FBF9F020DD
:1035D000FDF7DAF90020FDF7F5F95020FDF7F2F9D3
:1035E0000020FDF7EFF90020FDF7ECF90020FDF7D2
:1035F000E9F9F320FDF7C8F90020FDF7E3F9F92018
:10360000FDF7C2F90620FDF7DDF91020FDF7DAF924
:103610002920FDF7D7F90020FDF7D4F93A20FDF76E
:10362000B3F95520FDF7CEF91120FDF7ADF964206F
:1036300003F0B2F92920FDF7A7F93520FDF7A4F929
:103640000020FDF7BFF95120FDF79EF9FF20FDF79F
:10365000B9F95320FDF798F92C20FDF7B3F955205F
:10366000FDF792F98220FDF7ADF92C20FDF78CF9DA
:1036700002F0C4BAFE488088A0F5AA4110397DD175
:1036800055214FF47040FDF7F6F9AA214FF20100E1
:10369000FDF7F1F952214FF20200FDF7ECF9082194
:1036A0004FF20300FDF7E7F901214FF20400FDF7A7
:1036B000E2F90D214FF43040FDF7DDF90D214BF219
:1036C0000100FDF7D8F90D214BF20200FDF7D3F907
:1036D00034214FF43640FDF7CEF934214BF201602E
:1036E000FDF7C9F934214BF20260FDF7C4F90D2151
:1036F0004FF43140FDF7BFF90D214BF20110FDF7FA
:10370000BAF90D214BF20210FDF7B5F934214FF44F
:103710003740FDF7B0F934214BF20170FDF7ABF9FA
:1037200034214BF20270FDF7A6F900214FF432402C
:10373000FDF7A1F900214BF20120FDF79CF90021D2
:103740004BF20220FDF797F924214FF43840FDF7A2
:1037500092F924214BF60100FDF78DF924214BF657
:103760000200FDF788F901214FF43F40FDF783F98E
:103770000F214FF43340FDF77EF900E0FDE30F2108
:103780004BF20130FDF777F90F214BF20230FDF7D4
:1037900072F934214FF43940FDF76DF934214BF6BD
:1037A0000110FDF768F934214BF60210FDF763F9BB
:1037B00008214FF43540FDF75EF908214BF2015026
:1037C000FDF759F908214BF20250FDF754F9032196
:1037D0004FF44240FDF74FF924214FF43A40FDF7F2
:1037E0004AF924214BF60120FDF745F924214BF637
:1037F0000220FDF740F900214FF43C40FDF73BF972
:1038000078214BF60140FDF736F900214BF60240D6
:10381000FDF731F900214FF43D40FDF72CF97821F7
:103820004BF60150FDF727F900214BF60250FDF74A
:1038300022F900214FF43E40FDF71DF964214BF6BB
:103840000160FDF718F900214FF45140FDF713F91D
:1038500033214DF20110FDF70EF900214DF2021057
:10386000FDF709F934214DF20310FDF704F90021A9
:103870004DF20410FDF7FFF83A214DF20510FDF767
:10388000FAF800214DF20610FDF7F5F84A214DF245
:103890000710FDF7F0F800214DF20810FDF7EBF8E6
:1038A0005C214DF20910FDF7E6F800214DF20A10F7
:1038B000FDF7E1F881214DF20B10FDF7DCF8002156
:1038C0004DF20C10FDF7D7F8A6214DF20D10FDF7C3
:1038D000D2F800214DF20E10FDF7CDF8E5214DF2A2
:1038E0000F10FDF7C8F801214DF21010FDF7C3F8D5
:1038F00013214DF21110FDF7BEF801214DF2121007
:10390000FDF7B9F854214DF21310FDF7B4F8012179
:103910004DF21410FDF7AFF882214DF21510FDF7AE
:10392000AAF801214DF21610FDF7A5F8CA214DF2B3
:103930001710FDF7A0F802214DF21810FDF79BF8C3
:1039400000214DF21910FDF796F802214DF21A10E0
:10395000FDF791F801214DF21B10FDF78CF80221C3
:103960004DF21C10FDF787F834214DF21D10FDF7C4
:1039700082F802214DF21E10FDF77DF867214DF20D
:103980001F10FDF778F802214DF22010FDF773F8B3
:1039900084214DF22110FDF76EF802214DF2221024
:1039A000FDF769F8A4214DF22310FDF764F8022118
:1039B0004DF22410FDF75FF8B7214DF22510FDF709
:1039C0005AF802214DF22610FDF755F8CF214DF29D
:1039D0002710FDF750F802214DF22810FDF74BF8A3
:1039E000DE214DF22910FDF746F802214DF22A1092
:1039F000FDF741F8F2214DF22B10FDF73CF80221C2
:103A00004DF22C10FDF737F8FE214DF22D10FDF789
:103A100032F803214DF22E10FDF72DF810214DF252
:103A20002F10FDF728F803214DF23010FDF723F891
:103A300033214DF23110FDF71EF803214DF2321003
:103A4000FDF719F86D214DF23310FDF714F8002140
:103A50004FF45240FDF70FF833214DF20120FDF7EE
:103A60000AF800214DF20220FDF705F8342101E0AB
:103A7000620300204DF20320FCF7FDFF00214DF210
:103A80000420FCF7F8FF3A214DF20520FCF7F3FF84
:103A900000214DF20620FCF7EEFF4A214DF20720EF
:103AA000FCF7E9FF00214DF20820FCF7E4FF5C2160
:103AB0004DF20920FCF7DFFF00214DF20A20FCF750
:103AC000DAFF81214DF20B20FCF7D5FF00214DF2EA
:103AD0000C20FCF7D0FFA6214DF20D20FCF7CBFF08
:103AE00000214DF20E20FCF7C6FFE5214DF20F201C
:103AF000FCF7C1FF01214DF21020FCF7BCFF1321A0
:103B00004DF21120FCF7B7FF01214DF21220FCF716
:103B1000B2FF54214DF21320FCF7ADFF01214DF20D
:103B20001420FCF7A8FF82214DF21520FCF7A3FF1B
:103B300001214DF21620FCF79EFFCA214DF21720FD
:103B4000FCF799FF02214DF21820FCF794FF0021A9
:103B50004DF21920FCF78FFF02214DF21A20FCF7DD
:103B60008AFF01214DF21B20FCF785FF02214DF257
:103B70001C20FCF780FF34214DF21D20FCF77BFF59
:103B800002214DF21E20FCF776FF67214DF21F2027
:103B9000FCF771FF02214DF22020FCF76CFF84211D
:103BA0004DF22120FCF767FF02214DF22220FCF7A5
:103BB00062FFA4214DF22320FCF75DFF02214DF2AC
:103BC0002420FCF758FFB7214DF22520FCF753FFC6
:103BD00002214DF22620FCF74EFFCF214DF2272087
:103BE000FCF749FF02214DF22820FCF744FFDE21BB
:103BF0004DF22920FCF73FFF02214DF22A20FCF76D
:103C00003AFFF2214DF22B20FCF735FF02214DF255
:103C10002C20FCF730FFFE214DF22D20FCF72BFF6E
:103C200003214DF22E20FCF726FF10214DF22F200C
:103C3000FCF721FF03214DF23020FCF71CFF33215C
:103C40004DF23120FCF717FF03214DF23220FCF733
:103C500012FF6D214DF23320FCF70DFF00214FF4D0
:103C60005340FCF708FF33214DF20130FCF703FF0E
:103C700000214DF20230FCF7FEFE34214DF20330FC
:103C8000FCF7F9FE00214DF20430FCF7F4FE3A2176
:103C90004DF20530FCF7EFFE00214DF20630FCF747
:103CA000EAFE4A214DF20730FCF7E5FE00214DF215
:103CB0000830FCF7E0FE5C214DF20930FCF7DBFE3A
:103CC00000214DF20A30FCF7D6FE81214DF20B3077
:103CD000FCF7D1FE00214DF20C30FCF7CCFEA62102
:103CE0004DF20D30FCF7C7FE00214DF20E30FCF70F
:103CF000C2FEE5214DF20F30FCF7BDFE01214DF271
:103D00001030FCF7B8FE13214DF21130FCF7B3FE72
:103D100001214DF21230FCF7AEFE54214DF213306A
:103D2000FCF7A9FE01214DF21430FCF7A4FE82211C
:103D30004DF21530FCF79FFE01214DF21630FCF7D5
:103D40009AFECA214DF21730FCF795FE02214DF282
:103D50001830FCF790FE00214DF21930FCF78BFE75
:103D600002214DF21A30FCF786FE01214DF21B3084
:103D7000FCF781FE02214DF21C30FCF77CFE342161
:103D80004DF21D30FCF777FE02214DF21E30FCF79C
:103D900072FE67214DF21F30FCF76DFE02214DF2DD
:103DA0002030FCF768FE84214DF22130FCF763FEE1
:103DB00002214DF22230FCF75EFEA4214DF22330A9
:103DC000FCF759FE02214DF22430FCF754FEB721D6
:103DD0004DF22530FCF74FFE02214DF22630FCF764
:103DE0004AFECF214DF22730FCF745FE02214DF26D
:103DF0002830FCF740FEDE214DF22930FCF73BFE77
:103E000002214DF22A30FCF736FEF2214DF22B3022
:103E1000FCF731FE02214DF22C30FCF72CFEFE2186
:103E20004DF22D30FCF727FE03214DF22E30FCF72A
:103E300022FE10214DF22F30FCF71DFE03214DF222
:103E40003030FCF718FE33214DF23130FCF713FE11
:103E500003214DF23230FCF70EFE6D214DF233306E
:103E6000FCF709FE00214FF45440FCF704FE332117
:103E70004DF20140FCF7FFFD00214DF20240FCF73E
:103E8000FAFD34214DF20340FCF7F5FD00214DF21F
:103E90000440FCF7F0FD3A214DF20540FCF7EBFD44
:103EA00000214DF20640FCF7E6FD4A214DF20740A5
:103EB000FCF7E1FD00214DF20840FCF7DCFD5C2140
:103EC0004DF20940FCF7D7FD00214DF20A40FCF706
:103ED000D2FD81214DF20B40FCF7CDFD00214DF2CA
:103EE0000C40FCF7C8FDA6214DF20D40FCF7C3FDC8
:103EF00000214DF20E40FCF7BEFDE5214DF20F40D2
:103F0000FCF7B9FD01214DF21040FCF7B4FD13217F
:103F10004DF21140FCF7AFFD01214DF21240FCF7CC
:103F2000AAFD54214DF21340FCF7A5FD01214DF2ED
:103F30001440FCF7A0FD82214DF21540FCF79BFDDB
:103F400001214DF21640FCF796FDCA214DF21740B3
:103F5000FCF791FD02214DF21840FCF78CFD002189
:103F60004DF21940FCF787FD02214DF21A40FCF793
:103F700082FD01214DF21B4000E006E3FCF77BFDD2
:103F800002214DF21C40FCF776FD34214DF21D401C
:103F9000FCF771FD02214DF21E40FCF76CFD67211C
:103FA0004DF21F40FCF767FD02214DF22040FCF767
:103FB00062FD84214DF22140FCF75DFD02214DF2AE
:103FC0002240FCF758FDA4214DF22340FCF753FD9D
:103FD00002214DF22440FCF74EFDB7214DF2254061
:103FE000FCF749FD02214DF22640FCF744FDCF21AC
:103FF0004DF22740FCF73FFD02214DF22840FCF72F
:104000003AFDDE214DF22940FCF735FD02214DF24B
:104010002A40FCF730FDF2214DF22B40FCF72BFD3E
:1040200002214DF22C40FCF726FDFE214DF22D40E1
:10403000FCF721FD03214DF22E40FCF71CFD102161
:104040004DF22F40FCF717FD03214DF23040FCF7F5
:1040500012FD33214DF23140FCF70DFD03214DF2ED
:104060003240FCF708FD6D214DF23340FCF703FDB3
:1040700000214FF45540FCF7FEFC33214DF2015076
:10408000FCF7F9FC00214DF20250FCF7F4FC34215E
:104090004DF20350FCF7EFFC00214DF20450FCF709
:1040A000EAFC3A214DF20550FCF7E5FC00214DF207
:1040B0000650FCF7E0FC4A214DF20750FCF7DBFC10
:1040C00000214DF20850FCF7D6FC5C214DF209505E
:1040D000FCF7D1FC00214DF20A50FCF7CCFC812109
:1040E0004DF20B50FCF7C7FC00214DF20C50FCF7D1
:1040F000C2FCA6214DF20D50FCF7BDFC00214DF293
:104100000E50FCF7B8FCE5214DF20F50FCF7B3FC64
:1041100001214DF21050FCF7AEFC13214DF211506D
:10412000FCF7A9FC01214DF21250FCF7A4FC54212C
:104130004DF21350FCF79FFC01214DF21450FCF797
:104140009AFC82214DF21550FCF795FC01214DF2AD
:104150001650FCF790FCCA214DF21750FCF78BFC6F
:1041600002214DF21850FCF786FC00214DF2195047
:10417000FCF781FC02214DF21A50FCF77CFC012176
:104180004DF21B50FCF777FC02214DF21C50FCF75E
:1041900072FC34214DF21D50FCF76DFC02214DF2F2
:1041A0001E50FCF768FC67214DF21F50FCF763FCC2
:1041B00002214DF22050FCF75EFC84214DF221508B
:1041C000FCF759FC02214DF22250FCF754FCA421CB
:1041D0004DF22350FCF74FFC02214DF22450FCF726
:1041E0004AFCB7214DF22550FCF745FC02214DF267
:1041F0002650FCF740FCCF214DF22750FCF73BFC4A
:1042000002214DF22850FCF736FCDE214DF22950F8
:10421000FCF731FC02214DF22A50FCF72CFCF22174
:104220004DF22B50FCF727FC02214DF22C50FCF7ED
:1042300022FCFE214DF22D50FCF71DFC03214DF216
:104240002E50FCF718FC10214DF22F50FCF713FCF8
:1042500003214DF23050FCF70EFC33214DF231506A
:10426000FCF709FC03214DF23250FCF704FC6D21F0
:104270004DF23350FCF7FFFB00214FF45640FCF7A2
:10428000FAFB33214DF20160FCF7F5FB00214DF202
:104290000260FCF7F0FB34214DF20360FCF7EBFB0E
:1042A00000214DF20460FCF7E6FB3A214DF2056077
:1042B000FCF7E1FB00214DF20660FCF7DCFB4A2134
:1042C0004DF20760FCF7D7FB00214DF20860FCF7C8
:1042D000D2FB5C214DF20960FCF7CDFB00214DF2D1
:1042E0000A60FCF7C8FB81214DF20B60FCF7C3FBB1
:1042F00000214DF20C60FCF7BEFBA6214DF20D60D3
:10430000FCF7B9FB00214DF20E60FCF7B4FBE52190
:104310004DF20F60FCF7AFFB01214DF21060FCF78E
:10432000AAFB13214DF21160FCF7A5FB01214DF210
:104330001260FCF7A0FB54214DF21360FCF79BFBCD
:1043400001214DF21460FCF796FB82214DF21560BD
:10435000FCF791FB01214DF21660FCF78CFBCA21A2
:104360004DF21760FCF787FB02214DF21860FCF755
:1043700082FB00214DF21960FCF77DFB02214DF21A
:104380001A60FCF778FB01214DF21B60FCF773FB10
:1043900002214DF21C60FCF76EFB34214DF21D60D2
:1043A000FCF769FB02214DF21E60FCF764FB6721FC
:1043B0004DF21F60FCF75FFB02214DF22060FCF71D
:1043C0005AFB84214DF22160FCF755FB02214DF28E
:1043D0002260FCF750FBA4214DF22360FCF74BFB5D
:1043E00002214DF22460FCF746FBB7214DF2256017
:1043F000FCF741FB02214DF22660FCF73CFBCF218C
:104400004DF22760FCF737FB02214DF22860FCF7E4
:1044100032FBDE214DF22960FCF72DFB02214DF22B
:104420002A60FCF728FBF2214DF22B60FCF723FBFE
:1044300002214DF22C60FCF71EFBFE214DF22D6097
:10444000FCF719FB03214DF22E60FCF714FB102141
:104450004DF22F60FCF70FFB03214DF23060FCF7AB
:104460000AFB33214DF23160FCF705FB03214DF2CD
:104470003260FCF700FB6D214DF23360FCF7FBFA74
:1044800055214FF47040FCF7F6FAAA214FF20100D3
:10449000FCF7F1FA52214FF20200FCF7ECFA082186
:1044A0004FF20300FCF7E7FA00214FF20400FCF79B
:1044B000E2FACC214FF43140FCF7DDFA00214BF257
:1044C0000110FCF7D8FA05214FF43640FCF7D3FA77
:1044D00070214FF43740FCF7CEFA70214BF2017097
:1044E000FCF7C9FA01214FF43840FCF7C4FA032164
:1044F0004BF60100FCF7BFFA03214BF60200FCF774
:10450000BAFA03214BF60300FCF7B5FA02214FF487
:104510003C40FCF7B0FA00214BF60140FCF7ABFA47
:1045200000214BF60240FCF7A6FAD0214FF4494097
:10453000FCF7A1FA02214CF60110FCF79CFA50217D
:104540004CF60210FCF797FA50214CF60310FCF7DA
:1045500092FA50214CF60410FCF78DFA00214FF42A
:104560005450FCF788FA55214FF46850FCF783FA51
:104570004FF48850FCF708FA782002F028FA4FF43C
:104580002450FCF701FA01F039BBFE488088A0F501
:10459000134125397ED147F6F001E520FCF76BFA8F
:1045A0004FF480710120FCF766FA4FF4E0610220BD
:1045B000FCF761FA41F230010320FCF75CFA0021BC
:1045C0000420FCF758FA40F202210820FCF753FAC5
:1045D00000210920FCF74FFA00210A20FCF74BFAD2
:1045E00000210C20FCF747FA00210D20FCF743FACC
:1045F00000210F20FCF73FFA00211020FCF73BFAC6
:1046000007211120FCF737FA00211220FCF733FABA
:1046100000211320FCF72FFA00210720FCF72BFACA
:1046200041F290611020FCF726FA40F22721112078
:10463000FCF721FA9D211220FCF71DFA4FF4C85116
:104640001320FCF718FA25212920FCF714FA0D2174
:104650002B20FCF710FA07213020FCF70CFA40F26F
:1046600003313120FCF707FA03213220FCF703FA6B
:1046700040F206213520FCF7FEF908213620FCF730
:10468000FAF940F206413720FCF7F5F94FF4417191
:10469000382000E057E0FCF7EEF907213920FCF75D
:1046A000EAF940F202613C20FCF7E5F908213D20DF
:1046B000FCF7E1F900215020FCF7DDF9EF21512052
:1046C000FCF7D9F900215220FCF7D5F940F23F114F
:1046D0005320FCF7D0F94FF427416020FCF7CBF9C9
:1046E00001216120FCF7C7F900216A20FCF7C3F91A
:1046F00000218020FCF7BFF900218120FCF7BBF9E5
:1047000000218220FCF7B7F900218320FCF7B3F9E0
:1047100000218420FCF7AFF900218520FCF7ABF9DC
:1047200010219020FCF7A7F94FF4C0619220FCF70C
:10473000A2F940F233110720FCF79DF92221002055
:10474000FCF799F91FE78F488088A0F513412839B5
:104750007ED141F28F01EC20FCF78DF941F234213A
:10476000EF20FCF788F94FF480710120FCF783F902
:104770004FF4E0610220FCF77EF941F230010320A2
:10478000FCF779F900210420FCF775F940F20221C9
:104790000820FCF770F900210920FCF76CF90021D2
:1047A0000A20FCF768F901210C20FCF764F90021CC
:1047B0000D20FCF760F900210F20FCF75CF90021C7
:1047C0001020FCF758F907211120FCF754F90021BB
:1047D0001220FCF750F900211320FCF74CF90121BD
:1047E0000720FCF748F9322002F0D6F841F2904158
:1047F0001020FCF740F940F227211120FCF73BF98B
:10480000322002F0C9F88A211220FCF734F9322054
:1048100002F0C2F84FF4D0511320FCF72CF9062116
:104820002920FCF728F90D212B20FCF724F9322050
:1048300002F0B2F800212020FCF71DF90021212010
:10484000FCF719F9322002F0A7F80021302000E02F
:1048500074E0FCF710F940F204613120FCF70BF929
:1048600040F205313220FCF706F900213520FCF733
:1048700002F940F609413620FCF7FDF84FF40171CA
:104880003720FCF7F8F840F201313820FCF7F3F854
:1048900040F207713920FCF7EEF800213C20FCF7CC
:1048A000EAF840F60A213D20FCF7E5F8322002F054
:1048B00073F800215020FCF7DEF8EF215120FCF7BF
:1048C000DAF800215220FCF7D6F840F23F115320CD
:1048D000FCF7D1F84FF427416020FCF7CCF8012118
:1048E0006120FCF7C8F800216A20FCF7C4F8002119
:1048F0008020FCF7C0F800218120FCF7BCF80021E3
:104900008220FCF7B8F800218320FCF7B4F80021DE
:104910008420FCF7B0F800218520FCF7ACF81021CA
:104920009020FCF7A8F84FF4C0619220FCF7A3F8A0
:1049300040F233110720FCF79EF824E611488088E6
:10494000A0F5134125397CD147F6F001E520FCF7AD
:1049500092F84FF480710120FCF78DF84FF4E0617C
:104960000220FCF788F841F230010320FCF783F8BD
:1049700000210420FCF77FF840F202210820FCF718
:104980007AF801E06203002000210920FCF773F8A7
:1049900000210A20FCF76FF800210C20FCF76BF8CF
:1049A00000210D20FCF767F800210F20FCF763F8C9
:1049B00000211020FCF75FF807211120FCF75BF8BD
:1049C00000211220FCF757F800211320FCF753F8C0
:1049D00000210720FCF74FF841F290611020FCF70E
:1049E0004AF840F227211120FCF745F89D211220BA
:1049F000FCF741F84FF4C8511320FCF73CF825218F
:104A00002920FCF738F80D212B20FCF734F807217A
:104A10003020FCF730F840F203313120FCF72BF85E
:104A200003213220FCF727F840F206213520FCF75D
:104A300022F808213620FCF71EF840F20641372004
:104A400000E05CE0FCF717F84FF441713820FCF708
:104A500012F807213920FCF70EF840F202613C20E1
:104A6000FCF709F808213D20FCF705F8002150204B
:104A7000FCF701F8EF215120FBF7FDFF0021522048
:104A8000FBF7F9FF40F23F115320FBF7F4FF4FF41F
:104A900027416020FBF7EFFF01216120FBF7EBFFCF
:104AA00000216A20FBF7E7FF00218020FBF7E3FFEE
:104AB00000218120FBF7DFFF00218220FBF7DBFFD5
:104AC00000218320FBF7D7FF00218420FBF7D3FFD1
:104AD00000218520FBF7CFFF10219020FBF7CBFFB3
:104AE0004FF4C0619220FBF7C6FF40F2331107205C
:104AF000FBF7C1FF22210020FBF7BDFF43E5FE4885
:104B00008088A0F5134128397ED141F28F01EC2035
:104B1000FBF7B1FF41F23421EF20FBF7ACFF4FF47C
:104B200080710120FBF7A7FF4FF4E0610220FBF743
:104B3000A2FF41F230010320FBF79DFF002104207A
:104B4000FBF799FF40F202210820FBF794FF0021B8
:104B50000920FBF790FF00210A20FBF78CFF0121C1
:104B60000C20FBF788FF00210D20FBF784FF0021BC
:104B70000F20FBF780FF00211020FBF77CFF0721AF
:104B80001120FBF778FF00211220FBF774FF0021B2
:104B90001320FBF770FF01210720FBF76CFF322089
:104BA00001F0FAFE41F290411020FBF764FF40F261
:104BB00027211120FBF75FFF322001F0EDFE8A2153
:104BC0001220FBF758FF322001F0E6FE4FF4D051DF
:104BD0001320FBF750FF06212920FBF74CFF0D2186
:104BE0002B20FBF748FF322001F0D6FE00212020C9
:104BF000FBF741FF00212120FBF73DFF322001F0B0
:104C0000CBFE0021302000E074E0FBF734FF40F2DF
:104C100004613120FBF72FFF40F205313220FBF712
:104C20002AFF00213520FBF726FF40F609413620F8
:104C3000FBF721FF4FF401713720FBF71CFF40F217
:104C400001313820FBF717FF40F207713920FBF7DD
:104C500012FF00213C20FBF70EFF40F60A213D2009
:104C6000FBF709FF322001F097FE00215020FBF7EF
:104C700002FFEF215120FBF7FEFE00215220FBF73F
:104C8000FAFE40F23F115320FBF7F5FE4FF42741A7
:104C90006020FBF7F0FE01216120FBF7ECFE002114
:104CA0006A20FBF7E8FE00218020FBF7E4FE0021EC
:104CB0008120FBF7E0FE00218220FBF7DCFE0021D3
:104CC0008320FBF7D8FE00218420FBF7D4FE0021CF
:104CD0008520FBF7D0FE10219020FBF7CCFE4FF48F
:104CE000C0619220FBF7C7FE40F233110720FBF7AB
:104CF000C2FE48E480488088A0F5134120397DD168
:104D00000846FBF7B8FE4FF480710120FBF7B3FEB5
:104D10004FF4E0610220FBF7AEFE41F230010320C8
:104D2000FBF7A9FE00210420FBF7A5FE40F20221BB
:104D30000820FBF7A0FE00210920FBF79CFE0021C4
:104D40000A20FBF798FE01210C20FBF794FE0021BE
:104D50000D20FBF790FE00210F20FBF78CFE322088
:104D600001F01AFE40F201110720FBF784FE322009
:104D700001F012FE4FF486511020FBF77CFE072154
:104D80001120FBF778FE4FF488711220FBF773FEB9
:104D90004FF430611320FBF76EFE00212920FBF752
:104DA0006AFE44F210012B20FBF765FE0021502023
:104DB000FBF761FEEF215120FBF75DFE0021522041
:104DC000FBF759FE40F23F115320FBF754FE4FF41E
:104DD0001C516020FBF74FFE01216120FBF74BFEC9
:104DE00000216A20FBF747FE00218020FBF743FEED
:104DF00000218120FBF73FFE002100E02DE0822012
:104E0000FBF739FE00218320FBF735FE00218420CB
:104E1000FBF731FE00218520FBF72DFE10219020AD
:104E2000FBF729FE00219220FBF725FE01219320AC
:104E3000FBF721FE4FF488719520FBF71CFE002143
:104E40009720FBF718FE00219820FBF714FE40F294
:104E500073110720FBF70FFE74E427488088A0F544
:104E6000134131397DD141F21401E720FBF703FEF4
:104E70004FF480710120FBF7FEFD4FF4007102201A
:104E8000FBF7F9FD41F238010320FBF7F4FD40F296
:104E900002210820FBF7EFFD00210920FBF7EBFDC5
:104EA00000210A20FBF7E7FD00210C20FBF7E3FDC2
:104EB00000210D20FBF7DFFD00210F20FBF7DBFDBC
:104EC00000211020FBF7D7FD07211120FBF7D3FDB0
:104ED00000211220FBF7CFFD00211320FBF7CBFDB3
:104EE000C82001F059FD41F290611020FBF7C3FD8D
:104EF00040F22721112001E062030020FBF7BBFDF7
:104F0000322001F049FD0C211220FBF7B4FD3220C4
:104F100001F042FD4FF400611320FBF7ACFD1121BD
:104F20002920FBF7A8FD0B212B20FBF7A4FD322045
:104F300001F032FD00212020FBF79DFD40F23F11E2
:104F40002120FBF798FD00213020FBF794FD4FF462
:104F500083713120FBF78FFD00213220FBF78BFDA1
:104F600000E067E04FF401713520FBF784FD41F26A
:104F70000A613620FBF77FFD40F207713720FBF70F
:104F80007AFD4FF483713820FBF775FD40F207710D
:104F90003920FBF770FD40F202413C20FBF76BFD2E
:104FA00040F60F413D20FBF766FD00215020FBF746
:104FB00062FDEF215120FBF75EFD00215220FBF73F
:104FC0005AFD40F23F115320FBF755FD4FF41C51A1
:104FD0006020FBF750FD01216120FBF74CFD002113
:104FE0006A20FBF748FD00218020FBF744FD0021EB
:104FF0008120FBF740FD00218220FBF73CFD0021D2
:105000008320FBF738FD00218420FBF734FD0021CD
:105010008520FBF730FD10219020FBF72CFD4FF48D
:10502000C0619220FBF727FD40F233110720FBF708
:1050300022FD82E4FE488088A0F5A84108397DD190
:105040004FF480710120FBF716FD4FF4E061022060
:10505000FBF711FD41F230010320FBF70CFD0021AD
:105060000420FBF708FD40F207210820FBF703FDB1
:1050700000210920FBF7FFFC00210A20FBF7FBFCC5
:1050800000210C20FBF7F7FC00210D20FBF7F3FCBF
:1050900000210F20FBF7EFFC142001F07DFC41F212
:1050A000B0611020FBF7E7FC01211120FBF7E3FCC6
:1050B00001211720FBF7DFFC4FF49C711220FBF756
:1050C000DAFC4FF400611320FBF7D5FC09212920FD
:1050D000FBF7D1FC09212A20FBF7CDFC0021A420FD
:1050E000FBF7C9FC00215020FBF7C5FCEF21512044
:1050F000FBF7C1FC00215220FBF7BDFC40F23F1141
:105100005320FBF7B8FC4FF41C516020FBF7B3FCB5
:1051100001216120FBF7AFFC00216A20FBF7ABFC0B
:1051200000218020FBF7A7FC00218120FBF7A3FCD6
:1051300000218220FBF79FFC002100E024E0832077
:10514000FBF799FC00218420FBF795FC00218520CA
:10515000FBF791FC13219020FBF78DFC002192209E
:10516000FBF789FC03219320FBF785FC4FF4887142
:105170009520FBF780FC40F273110720FBF77BFCC6
:10518000322001F009FCB9E4A9488088A0F5A851B3
:1051900005397DD10720FBF76EFC322001F0FCFBC6
:1051A0004FF48E711220FBF766FC0121A420FBF75F
:1051B00062FC0F210820FBF75EFC08210A20FBF7A8
:1051C0005AFC08210D20FBF756FC40F207713020F5
:1051D000FBF751FC07213120FBF74DFC40F2036146
:1051E0003220FBF748FC4FF4E0613320FBF743FC2F
:1051F00040F202213420FBF73EFC02213520FBF770
:105200003AFC41F60F713620FBF735FC40F207718E
:105210003720FBF730FC00213820FBF72CFC002165
:105220003920FBF728FC40F207713A20FBF723FCFA
:1052300000213B20FBF71FFC07213C20FBF71BFC58
:1052400000213D20FBF717FC322001F0A5FB0121D6
:105250000720FBF710FC01211720FBF70CFC322084
:1052600001F09AFB4FF4BD511020FBF704FC40F213
:1052700017211120FBF7FFFB4FF48F711220FBF772
:10528000FAFB4FF470611320FBF7F5FB002100E0FF
:1052900094E02A20FBF7EFFB0A212920FBF7EBFB28
:1052A0004FF49F711220FBF7E6FB00215020FBF723
:1052B000E2FBEF215120FBF7DEFB00215220FBF740
:1052C000DAFB40F23F115320FBF7D5FB4FF41C51A2
:1052D0006020FBF7D0FB01216120FBF7CCFB002114
:1052E0006A20FBF7C8FB00218020FBF7C4FB0021EC
:1052F0008120FBF7C0FB00218220FBF7BCFB0021D3
:105300008320FBF7B8FB00218420FBF7B4FB0021CE
:105310008520FBF7B0FB13219020FBF7ACFB4FF48B
:1053200040719220FBF7A7FB05219320FBF7A3FB1D
:1053300000219520FBF79FFB00219720FBF79BFBAB
:1053400000219820FBF797FB4FF480710120FBF7B9
:1053500092FB4FF4E0610220FBF78DFB41F2380134
:105360000320FBF788FB00210420FBF784FB0021CE
:105370000C20FBF780FB00210F20FBF77CFB0021BA
:105380002020FBF778FB00212120FBF774FB212173
:105390000720FBF770FB142001F0FEFA61210720C3
:1053A000FBF769FB142001F0F7FA40F273110720B4
:1053B000FBF761FB142001F0EFFA9AE41C488088A7
:1053C000A0F5354105397CD10846FBF754FB002197
:1053D0000846FBF750FB00210846FBF74CFB002179
:1053E0000846FBF748FB0121A420FBF744FB1420EF
:1053F00001F0D2FA4FF41C516020FBF73CFB40F265
:1054000002210820FBF737FB4FF405713020FBF732
:1054100032FB43F215713120FBF72DFB40F20461A2
:105420003220FBF728FB40F61661332002E0000033
:1054300062030020FBF71FFB42F211213420FBF72F
:105440001AFB4FF4A8513520FBF715FB48F2075122
:105450003620FBF710FB41F207413720FBF70BFB2F
:1054600041F203413820FBF706FB20213920FBF7EE
:1054700002FB1A219020FBF7FEFA00211020FBF717
:10548000FAFA07211120FBF7F6FA00211220FBF7A8
:10549000F2FA00211320FBF7EEFA142001F07CFA57
:1054A0004FF4E6611020FBF7E6FA40F237111120C5
:1054B000FBF7E1FA142001F06FFA4FF4DC711220CF
:1054C00000E088E0FBF7D7FA142001F065FA4FF40A
:1054D00070611320FBF7CFFA80212A20FBF7CBFA6B
:1054E00048212920FBF7C7FA142001F055FA4FF4A0
:1054F00080710120FBF7BFFA4FF4E0610220FBF757
:10550000BAFA41F238010320FBF7B5FA40F2022162
:105510000820FBF7B0FA00210A20FBF7ACFA0021C3
:105520000C20FBF7A8FA00210D20FBF7A4FA30218C
:105530000E20FBF7A0FA00215020FBF79CFAEF2188
:105540005120FBF798FA00215220FBF794FA40F221
:105550003F115320FBF78FFA4FF41C516020FBF7EB
:105560008AFA01216120FBF786FA00216A20FBF705
:1055700082FA11219020FBF77EFA4FF4C06192204D
:10558000FBF779FA40F202419320FBF774FA02210B
:105590009420FBF770FA142001F0FEF90121072096
:1055A000FBF769FA142001F0F7F961210720FBF7F6
:1055B00062FA40F273110720FBF75DFA0021202008
:1055C000FBF759FA00212120FBF755FA2221002090
:1055D000FBF751FA12E3FE488088A0F545410539F2
:1055E0007DD10846FBF747FA00210846FBF743FA4E
:1055F000142001F0D1F900210846FBF73CFA002104
:105600000846FBF738FA00210846FBF734FA002178
:105610000846FBF730FA0121A420FBF72CFA1420EE
:1056200001F0BAF94FF41C516020FBF724FA40F660
:1056300006010820FBF71FFA40F203713020FBF748
:105640001AFA01213120FBF716FA04213220FBF768
:1056500012FA4FF481713320FBF70DFA4FF44071C9
:105660003420FBF708FA40F203113520FBF703FA68
:105670001F213620FBF7FFF940F203713720FBF7BB
:10568000FAF901213820FBF7F6F904213920FBF75C
:10569000F2F915219020FBF7EEF94FF4826110200A
:1056A000FBF7E9F940F247211120FBF7E4F94FF449
:1056B000DE711220FBF7DFF94FF460611320FBF776
:1056C000DAF9782001F068F94FF480710120FBF7D6
:1056D000D2F94FF400710220FBF7CDF900E050E061
:1056E00041F230010320FBF7C6F908210A20FBF73D
:1056F000C2F900210C20FBF7BEF920210E20FBF798
:10570000BAF900210F20FBF7B6F900212020FBF7A2
:10571000B2F900212120FBF7AEF93D212A20FBF749
:10572000AAF9142001F038F92D212920FBF7A3F95B
:1057300000215020FBF79FF94DF2EF015120FBF7BC
:105740009AF900215220FBF796F940F23F115320BD
:10575000FBF791F900216120FBF78DF900216A2008
:10576000FBF789F94FF440719220FBF784F905218A
:105770009320FBF780F94FF480710720FBF77BF94A
:105780003CE293488088A0F5094189397DD1012107
:105790000020FBF770F94AF6A4010320FBF76BF930
:1057A00000210C20FBF767F940F60C010D20FBF7F8
:1057B00062F94FF42C510E20FBF75DF9B0211E2049
:1057C000FBF759F942F63F310120FBF754F94FF44A
:1057D000C0610220FBF74FF900211020FBF74BF9C5
:1057E00046F278011120FBF746F900210520FBF76E
:1057F00042F900210620FBF73EF94EF61C711620F7
:10580000FBF739F903211720FBF735F940F2332173
:105810000720FBF730F900210B20FBF72CF90021C2
:105820000F20FBF728F900214120FBF724F9002184
:105830004220FBF720F900214820FBF71CF940F239
:105840003F114920FBF717F900214A20FBF713F914
:1058500000214B20FBF70FF94FF46F414420FBF779
:105860000AF900214520FBF706F940F23F114620D6
:10587000FBF701F940F207713020FBF7FCF84FF419
:1058800001713120FBF7F7F800E03DE04FF40171C2
:105890003220FBF7F0F840F202513320FBF7EBF82F
:1058A00040F207513420FBF7E6F84FF40171352040
:1058B000FBF7E1F84FF401713620FBF7DCF840F21A
:1058C00002513720FBF7D7F840F202313A20FBF7BC
:1058D000D2F840F202313B20FBF7CDF80021232023
:1058E000FBF7C9F800212420FBF7C5F84FF400416D
:1058F0002520FBF7C0F800214F20FBF7BCF8002162
:105900004E20FBF7B8F879E131488088A0F58A414C
:1059100031397CD101210020FBF7ADF80A2001F0DC
:105920003BF841F228611020FBF7A5F80E21122068
:10593000FBF7A1F840F639211320FBF79CF80A2069
:1059400001F02AF840211120FBF795F8502115208D
:10595000FBF791F80A2001F01FF81E211220FBF737
:105960008AF80A2001F018F84FF4B1511020FBF723
:1059700082F842F639211320FBF77DF80A2001F066
:105980000BF84FF480710120FBF775F84FF440716C
:105990000220FBF770F841F238010320FBF76BF8A7
:1059A00040F202210820FBF766F808210A20FBF7E5
:1059B00062F800213020FBF75EF840F2024131200E
:1059C000FBF759F84FF483713220FBF754F801E0EC
:1059D0006203002040F203513320FBF74CF84FF4F0
:1059E00082713420FBF747F840F201313520FBF794
:1059F00042F840F207713620FBF73DF840F20531DE
:105A00003720FBF738F84FF40271382000E040E00F
:105A1000FBF731F840F60B713920FBF72CF8022127
:105A20004120FBF728F84FF41C516020FBF723F8C6
:105A300001216120FBF71FF84FF404719020FBF760
:105A40001AF84FF485719220FBF715F80421932082
:105A5000FBF711F84FF48071A020FBF70CF801213F
:105A60000720FBF708F821210720FBF704F8232182
:105A70000720FBF700F833210720FAF7FCFF40F27C
:105A800033110720FAF7F7FF0021A020FAF7F3FF00
:105A9000B4E0F7488088A0F58A413539F8D1302143
:105AA0001520FAF7E8FF10219A20FAF7E4FF2021E9
:105AB0001120FAF7E0FF43F228411020FAF7DBFF4C
:105AC00002211220FAF7D7FF41F238011320FAF72A
:105AD000D2FF282000F060FF12210846FAF7CBFF22
